{
  "_format": "hh-sol-artifact-1",
  "contractName": "FFH",
  "sourceName": "contracts/FFH.sol",
  "abi": [
    {
      "inputs": [],
      "stateMutability": "nonpayable",
      "type": "constructor"
    },
    {
      "anonymous": false,
      "inputs": [
        {
          "indexed": true,
          "internalType": "address",
          "name": "refugee",
          "type": "address"
        }
      ],
      "name": "RefugeeRegistered",
      "type": "event"
    },
    {
      "anonymous": false,
      "inputs": [
        {
          "indexed": true,
          "internalType": "address",
          "name": "refugee",
          "type": "address"
        }
      ],
      "name": "RefugeeRejected",
      "type": "event"
    },
    {
      "anonymous": false,
      "inputs": [
        {
          "indexed": true,
          "internalType": "address",
          "name": "refugee",
          "type": "address"
        },
        {
          "indexed": false,
          "internalType": "uint256",
          "name": "amountReceived",
          "type": "uint256"
        }
      ],
      "name": "RefugeeVerified",
      "type": "event"
    },
    {
      "inputs": [],
      "name": "checkActualBalance",
      "outputs": [
        {
          "internalType": "uint256",
          "name": "",
          "type": "uint256"
        }
      ],
      "stateMutability": "view",
      "type": "function"
    },
    {
      "inputs": [],
      "name": "checkBalance",
      "outputs": [
        {
          "internalType": "uint256",
          "name": "",
          "type": "uint256"
        }
      ],
      "stateMutability": "view",
      "type": "function"
    },
    {
      "inputs": [],
      "name": "getAllNonVerifiedRefugees",
      "outputs": [
        {
          "components": [
            {
              "internalType": "address",
              "name": "accountAddress",
              "type": "address"
            },
            {
              "internalType": "string",
              "name": "name",
              "type": "string"
            },
            {
              "internalType": "string",
              "name": "phoneNumber",
              "type": "string"
            },
            {
              "internalType": "string",
              "name": "nationality",
              "type": "string"
            },
            {
              "internalType": "string",
              "name": "currentAddress",
              "type": "string"
            },
            {
              "internalType": "uint256",
              "name": "unhrcID",
              "type": "uint256"
            }
          ],
          "internalType": "struct FFH.Refugee[]",
          "name": "",
          "type": "tuple[]"
        }
      ],
      "stateMutability": "view",
      "type": "function"
    },
    {
      "inputs": [],
      "name": "getAllVerifiedRefugees",
      "outputs": [
        {
          "components": [
            {
              "internalType": "address",
              "name": "accountAddress",
              "type": "address"
            },
            {
              "internalType": "string",
              "name": "name",
              "type": "string"
            },
            {
              "internalType": "string",
              "name": "phoneNumber",
              "type": "string"
            },
            {
              "internalType": "string",
              "name": "nationality",
              "type": "string"
            },
            {
              "internalType": "string",
              "name": "currentAddress",
              "type": "string"
            },
            {
              "internalType": "uint256",
              "name": "unhrcID",
              "type": "uint256"
            }
          ],
          "internalType": "struct FFH.Refugee[]",
          "name": "",
          "type": "tuple[]"
        }
      ],
      "stateMutability": "view",
      "type": "function"
    },
    {
      "inputs": [],
      "name": "government",
      "outputs": [
        {
          "internalType": "address payable",
          "name": "",
          "type": "address"
        }
      ],
      "stateMutability": "view",
      "type": "function"
    },
    {
      "inputs": [
        {
          "internalType": "address",
          "name": "_refugeeAddress",
          "type": "address"
        }
      ],
      "name": "isNonVerifiedRefugee",
      "outputs": [
        {
          "internalType": "bool",
          "name": "",
          "type": "bool"
        }
      ],
      "stateMutability": "view",
      "type": "function"
    },
    {
      "inputs": [
        {
          "internalType": "address",
          "name": "_refugeeAddress",
          "type": "address"
        }
      ],
      "name": "isVerifiedRefugee",
      "outputs": [
        {
          "internalType": "bool",
          "name": "",
          "type": "bool"
        }
      ],
      "stateMutability": "view",
      "type": "function"
    },
    {
      "inputs": [
        {
          "internalType": "uint256",
          "name": "",
          "type": "uint256"
        }
      ],
      "name": "nonVerifiedRefugees",
      "outputs": [
        {
          "internalType": "address",
          "name": "accountAddress",
          "type": "address"
        },
        {
          "internalType": "string",
          "name": "name",
          "type": "string"
        },
        {
          "internalType": "string",
          "name": "phoneNumber",
          "type": "string"
        },
        {
          "internalType": "string",
          "name": "nationality",
          "type": "string"
        },
        {
          "internalType": "string",
          "name": "currentAddress",
          "type": "string"
        },
        {
          "internalType": "uint256",
          "name": "unhrcID",
          "type": "uint256"
        }
      ],
      "stateMutability": "view",
      "type": "function"
    },
    {
      "inputs": [
        {
          "internalType": "address",
          "name": "",
          "type": "address"
        }
      ],
      "name": "refugeeBalances",
      "outputs": [
        {
          "internalType": "uint256",
          "name": "",
          "type": "uint256"
        }
      ],
      "stateMutability": "view",
      "type": "function"
    },
    {
      "inputs": [
        {
          "internalType": "string",
          "name": "_name",
          "type": "string"
        },
        {
          "internalType": "string",
          "name": "_phoneNumber",
          "type": "string"
        },
        {
          "internalType": "string",
          "name": "_nationality",
          "type": "string"
        },
        {
          "internalType": "string",
          "name": "_currentAddress",
          "type": "string"
        },
        {
          "internalType": "uint256",
          "name": "_unhrcID",
          "type": "uint256"
        }
      ],
      "name": "registerAsRefugee",
      "outputs": [],
      "stateMutability": "payable",
      "type": "function"
    },
    {
      "inputs": [
        {
          "internalType": "address",
          "name": "_refugeeAddress",
          "type": "address"
        }
      ],
      "name": "rejectRefugee",
      "outputs": [],
      "stateMutability": "nonpayable",
      "type": "function"
    },
    {
      "inputs": [
        {
          "internalType": "uint256",
          "name": "",
          "type": "uint256"
        }
      ],
      "name": "verifiedRefugees",
      "outputs": [
        {
          "internalType": "address",
          "name": "accountAddress",
          "type": "address"
        },
        {
          "internalType": "string",
          "name": "name",
          "type": "string"
        },
        {
          "internalType": "string",
          "name": "phoneNumber",
          "type": "string"
        },
        {
          "internalType": "string",
          "name": "nationality",
          "type": "string"
        },
        {
          "internalType": "string",
          "name": "currentAddress",
          "type": "string"
        },
        {
          "internalType": "uint256",
          "name": "unhrcID",
          "type": "uint256"
        }
      ],
      "stateMutability": "view",
      "type": "function"
    },
    {
      "inputs": [
        {
          "internalType": "address",
          "name": "_refugeeAddress",
          "type": "address"
        }
      ],
      "name": "verifyRefugee",
      "outputs": [],
      "stateMutability": "payable",
      "type": "function"
    },
    {
      "stateMutability": "payable",
      "type": "receive"
    }
  ],
  "bytecode": "0x608060405234801561001057600080fd5b50336000806101000a81548173ffffffffffffffffffffffffffffffffffffffff021916908373ffffffffffffffffffffffffffffffffffffffff160217905550612b8d806100606000396000f3fe6080604052600436106100c65760003560e01c8063978e375b1161007f578063b444016b11610059578063b444016b1461027f578063c71daccb146102c1578063d68f4217146102ec578063fc2751eb14610308576100cd565b8063978e375b1461020f578063a5bc13fa1461022b578063aa1bbcb014610254576100cd565b8063101bb6cc146100d25780632672f526146100fd5780633acaabaf146101285780635b7bb4161461016557806366cc7ae0146101a257806378ec742d146101e4576100cd565b366100cd57005b600080fd5b3480156100de57600080fd5b506100e7610345565b6040516100f49190612034565b60405180910390f35b34801561010957600080fd5b506101126106da565b60405161011f9190612077565b60405180910390f35b34801561013457600080fd5b5061014f600480360381019061014a91906120d2565b6106fe565b60405161015c919061210e565b60405180910390f35b34801561017157600080fd5b5061018c600480360381019061018791906120d2565b610716565b6040516101999190612144565b60405180910390f35b3480156101ae57600080fd5b506101c960048036038101906101c4919061218b565b6107cb565b6040516101db96959493929190612211565b60405180910390f35b3480156101f057600080fd5b506101f9610a57565b604051610206919061210e565b60405180910390f35b610229600480360381019061022491906120d2565b610a76565b005b34801561023757600080fd5b50610252600480360381019061024d91906120d2565b6110eb565b005b34801561026057600080fd5b50610269611210565b6040516102769190612034565b60405180910390f35b34801561028b57600080fd5b506102a660048036038101906102a1919061218b565b6115a5565b6040516102b896959493929190612211565b60405180910390f35b3480156102cd57600080fd5b506102d6611831565b6040516102e3919061210e565b60405180910390f35b610306600480360381019061030191906123c3565b611878565b005b34801561031457600080fd5b5061032f600480360381019061032a91906120d2565b611a31565b60405161033c9190612144565b60405180910390f35b606060008054906101000a900473ffffffffffffffffffffffffffffffffffffffff1673ffffffffffffffffffffffffffffffffffffffff163373ffffffffffffffffffffffffffffffffffffffff16146103d5576040517f08c379a00000000000000000000000000000000000000000000000000000000081526004016103cc90612520565b60405180910390fd5b6002805480602002602001604051908101604052809291908181526020016000905b828210156106d157838290600052602060002090600602016040518060c00160405290816000820160009054906101000a900473ffffffffffffffffffffffffffffffffffffffff1673ffffffffffffffffffffffffffffffffffffffff1673ffffffffffffffffffffffffffffffffffffffff1681526020016001820180546104809061256f565b80601f01602080910402602001604051908101604052809291908181526020018280546104ac9061256f565b80156104f95780601f106104ce576101008083540402835291602001916104f9565b820191906000526020600020905b8154815290600101906020018083116104dc57829003601f168201915b505050505081526020016002820180546105129061256f565b80601f016020809104026020016040519081016040528092919081815260200182805461053e9061256f565b801561058b5780601f106105605761010080835404028352916020019161058b565b820191906000526020600020905b81548152906001019060200180831161056e57829003601f168201915b505050505081526020016003820180546105a49061256f565b80601f01602080910402602001604051908101604052809291908181526020018280546105d09061256f565b801561061d5780601f106105f25761010080835404028352916020019161061d565b820191906000526020600020905b81548152906001019060200180831161060057829003601f168201915b505050505081526020016004820180546106369061256f565b80601f01602080910402602001604051908101604052809291908181526020018280546106629061256f565b80156106af5780601f10610684576101008083540402835291602001916106af565b820191906000526020600020905b81548152906001019060200180831161069257829003601f168201915b50505050508152602001600582015481525050815260200190600101906103f7565b50505050905090565b60008054906101000a900473ffffffffffffffffffffffffffffffffffffffff1681565b60036020528060005260406000206000915090505481565b600080600090505b6001805490508110156107c0578273ffffffffffffffffffffffffffffffffffffffff1660018281548110610756576107556125a0565b5b906000526020600020906006020160000160009054906101000a900473ffffffffffffffffffffffffffffffffffffffff1673ffffffffffffffffffffffffffffffffffffffff16036107ad5760019150506107c6565b80806107b8906125fe565b91505061071e565b50600090505b919050565b600181815481106107db57600080fd5b90600052602060002090600602016000915090508060000160009054906101000a900473ffffffffffffffffffffffffffffffffffffffff16908060010180546108249061256f565b80601f01602080910402602001604051908101604052809291908181526020018280546108509061256f565b801561089d5780601f106108725761010080835404028352916020019161089d565b820191906000526020600020905b81548152906001019060200180831161088057829003601f168201915b5050505050908060020180546108b29061256f565b80601f01602080910402602001604051908101604052809291908181526020018280546108de9061256f565b801561092b5780601f106109005761010080835404028352916020019161092b565b820191906000526020600020905b81548152906001019060200180831161090e57829003601f168201915b5050505050908060030180546109409061256f565b80601f016020809104026020016040519081016040528092919081815260200182805461096c9061256f565b80156109b95780601f1061098e576101008083540402835291602001916109b9565b820191906000526020600020905b81548152906001019060200180831161099c57829003601f168201915b5050505050908060040180546109ce9061256f565b80601f01602080910402602001604051908101604052809291908181526020018280546109fa9061256f565b8015610a475780601f10610a1c57610100808354040283529160200191610a47565b820191906000526020600020905b815481529060010190602001808311610a2a57829003601f168201915b5050505050908060050154905086565b60003373ffffffffffffffffffffffffffffffffffffffff1631905090565b60008054906101000a900473ffffffffffffffffffffffffffffffffffffffff1673ffffffffffffffffffffffffffffffffffffffff163373ffffffffffffffffffffffffffffffffffffffff1614610b04576040517f08c379a0000000000000000000000000000000000000000000000000000000008152600401610afb90612520565b60405180910390fd5b610b0d81611a31565b610b4c576040517f08c379a0000000000000000000000000000000000000000000000000000000008152600401610b43906126b8565b60405180910390fd5b600066b1a2bc2ec50000905080471015610b9b576040517f08c379a0000000000000000000000000000000000000000000000000000000008152600401610b9290612724565b60405180910390fd5b610ba3611d41565b60005b600280549050811015610f1a578373ffffffffffffffffffffffffffffffffffffffff1660028281548110610bde57610bdd6125a0565b5b906000526020600020906006020160000160009054906101000a900473ffffffffffffffffffffffffffffffffffffffff1673ffffffffffffffffffffffffffffffffffffffff1603610f075760028181548110610c3f57610c3e6125a0565b5b90600052602060002090600602016040518060c00160405290816000820160009054906101000a900473ffffffffffffffffffffffffffffffffffffffff1673ffffffffffffffffffffffffffffffffffffffff1673ffffffffffffffffffffffffffffffffffffffff168152602001600182018054610cbe9061256f565b80601f0160208091040260200160405190810160405280929190818152602001828054610cea9061256f565b8015610d375780601f10610d0c57610100808354040283529160200191610d37565b820191906000526020600020905b815481529060010190602001808311610d1a57829003601f168201915b50505050508152602001600282018054610d509061256f565b80601f0160208091040260200160405190810160405280929190818152602001828054610d7c9061256f565b8015610dc95780601f10610d9e57610100808354040283529160200191610dc9565b820191906000526020600020905b815481529060010190602001808311610dac57829003601f168201915b50505050508152602001600382018054610de29061256f565b80601f0160208091040260200160405190810160405280929190818152602001828054610e0e9061256f565b8015610e5b5780601f10610e3057610100808354040283529160200191610e5b565b820191906000526020600020905b815481529060010190602001808311610e3e57829003601f168201915b50505050508152602001600482018054610e749061256f565b80601f0160208091040260200160405190810160405280929190818152602001828054610ea09061256f565b8015610eed5780601f10610ec257610100808354040283529160200191610eed565b820191906000526020600020905b815481529060010190602001808311610ed057829003601f168201915b505050505081526020016005820154815250509150610f1a565b8080610f12906125fe565b915050610ba6565b50600181908060018154018082558091505060019003906000526020600020906006020160009091909190915060008201518160000160006101000a81548173ffffffffffffffffffffffffffffffffffffffff021916908373ffffffffffffffffffffffffffffffffffffffff1602179055506020820151816001019081610fa391906128f0565b506040820151816002019081610fb991906128f0565b506060820151816003019081610fcf91906128f0565b506080820151816004019081610fe591906128f0565b5060a082015181600501555050610ffb83611ae6565b81600360008573ffffffffffffffffffffffffffffffffffffffff1673ffffffffffffffffffffffffffffffffffffffff168152602001908152602001600020600082825461104a91906129c2565b925050819055508273ffffffffffffffffffffffffffffffffffffffff166108fc839081150290604051600060405180830381858888f19350505050158015611097573d6000803e3d6000fd5b508273ffffffffffffffffffffffffffffffffffffffff167f6f485fd914dc0150fd0fc6f43fd1135a94bee8de8488880ca5211ebdd73cb213836040516110de919061210e565b60405180910390a2505050565b60008054906101000a900473ffffffffffffffffffffffffffffffffffffffff1673ffffffffffffffffffffffffffffffffffffffff163373ffffffffffffffffffffffffffffffffffffffff1614611179576040517f08c379a000000000000000000000000000000000000000000000000000000000815260040161117090612520565b60405180910390fd5b61118281611a31565b6111c1576040517f08c379a00000000000000000000000000000000000000000000000000000000081526004016111b8906126b8565b60405180910390fd5b6111ca81611ae6565b8073ffffffffffffffffffffffffffffffffffffffff167ff94995162152299865351c8948bcd8754b80cc157987c8d05c08f0e3a617ab1360405160405180910390a250565b606060008054906101000a900473ffffffffffffffffffffffffffffffffffffffff1673ffffffffffffffffffffffffffffffffffffffff163373ffffffffffffffffffffffffffffffffffffffff16146112a0576040517f08c379a000000000000000000000000000000000000000000000000000000000815260040161129790612520565b60405180910390fd5b6001805480602002602001604051908101604052809291908181526020016000905b8282101561159c57838290600052602060002090600602016040518060c00160405290816000820160009054906101000a900473ffffffffffffffffffffffffffffffffffffffff1673ffffffffffffffffffffffffffffffffffffffff1673ffffffffffffffffffffffffffffffffffffffff16815260200160018201805461134b9061256f565b80601f01602080910402602001604051908101604052809291908181526020018280546113779061256f565b80156113c45780601f10611399576101008083540402835291602001916113c4565b820191906000526020600020905b8154815290600101906020018083116113a757829003601f168201915b505050505081526020016002820180546113dd9061256f565b80601f01602080910402602001604051908101604052809291908181526020018280546114099061256f565b80156114565780601f1061142b57610100808354040283529160200191611456565b820191906000526020600020905b81548152906001019060200180831161143957829003601f168201915b5050505050815260200160038201805461146f9061256f565b80601f016020809104026020016040519081016040528092919081815260200182805461149b9061256f565b80156114e85780601f106114bd576101008083540402835291602001916114e8565b820191906000526020600020905b8154815290600101906020018083116114cb57829003601f168201915b505050505081526020016004820180546115019061256f565b80601f016020809104026020016040519081016040528092919081815260200182805461152d9061256f565b801561157a5780601f1061154f5761010080835404028352916020019161157a565b820191906000526020600020905b81548152906001019060200180831161155d57829003601f168201915b50505050508152602001600582015481525050815260200190600101906112c2565b50505050905090565b600281815481106115b557600080fd5b90600052602060002090600602016000915090508060000160009054906101000a900473ffffffffffffffffffffffffffffffffffffffff16908060010180546115fe9061256f565b80601f016020809104026020016040519081016040528092919081815260200182805461162a9061256f565b80156116775780601f1061164c57610100808354040283529160200191611677565b820191906000526020600020905b81548152906001019060200180831161165a57829003601f168201915b50505050509080600201805461168c9061256f565b80601f01602080910402602001604051908101604052809291908181526020018280546116b89061256f565b80156117055780601f106116da57610100808354040283529160200191611705565b820191906000526020600020905b8154815290600101906020018083116116e857829003601f168201915b50505050509080600301805461171a9061256f565b80601f01602080910402602001604051908101604052809291908181526020018280546117469061256f565b80156117935780601f1061176857610100808354040283529160200191611793565b820191906000526020600020905b81548152906001019060200180831161177657829003601f168201915b5050505050908060040180546117a89061256f565b80601f01602080910402602001604051908101604052809291908181526020018280546117d49061256f565b80156118215780601f106117f657610100808354040283529160200191611821565b820191906000526020600020905b81548152906001019060200180831161180457829003601f168201915b5050505050908060050154905086565b6000600360003373ffffffffffffffffffffffffffffffffffffffff1673ffffffffffffffffffffffffffffffffffffffff16815260200190815260200160002054905090565b60026040518060c001604052803373ffffffffffffffffffffffffffffffffffffffff16815260200187815260200186815260200185815260200184815260200183815250908060018154018082558091505060019003906000526020600020906006020160009091909190915060008201518160000160006101000a81548173ffffffffffffffffffffffffffffffffffffffff021916908373ffffffffffffffffffffffffffffffffffffffff160217905550602082015181600101908161194291906128f0565b50604082015181600201908161195891906128f0565b50606082015181600301908161196e91906128f0565b50608082015181600401908161198491906128f0565b5060a08201518160050155505034600360003373ffffffffffffffffffffffffffffffffffffffff1673ffffffffffffffffffffffffffffffffffffffff16815260200190815260200160002060008282546119e091906129c2565b925050819055503373ffffffffffffffffffffffffffffffffffffffff167fb17352af83ba1a7718895bef09ea67cd4f69e3321b1894e58b4439bed53fdce060405160405180910390a25050505050565b600080600090505b600280549050811015611adb578273ffffffffffffffffffffffffffffffffffffffff1660028281548110611a7157611a706125a0565b5b906000526020600020906006020160000160009054906101000a900473ffffffffffffffffffffffffffffffffffffffff1673ffffffffffffffffffffffffffffffffffffffff1603611ac8576001915050611ae1565b8080611ad3906125fe565b915050611a39565b50600090505b919050565b60005b600280549050811015611d3d578173ffffffffffffffffffffffffffffffffffffffff1660028281548110611b2157611b206125a0565b5b906000526020600020906006020160000160009054906101000a900473ffffffffffffffffffffffffffffffffffffffff1673ffffffffffffffffffffffffffffffffffffffff1603611d2a5760026001600280549050611b8291906129f6565b81548110611b9357611b926125a0565b5b906000526020600020906006020160028281548110611bb557611bb46125a0565b5b90600052602060002090600602016000820160009054906101000a900473ffffffffffffffffffffffffffffffffffffffff168160000160006101000a81548173ffffffffffffffffffffffffffffffffffffffff021916908373ffffffffffffffffffffffffffffffffffffffff16021790555060018201816001019081611c3e9190612a40565b5060028201816002019081611c539190612a40565b5060038201816003019081611c689190612a40565b5060048201816004019081611c7d9190612a40565b50600582015481600501559050506002805480611c9d57611c9c612b28565b5b6001900381819060005260206000209060060201600080820160006101000a81549073ffffffffffffffffffffffffffffffffffffffff0219169055600182016000611ce99190611d8d565b600282016000611cf99190611d8d565b600382016000611d099190611d8d565b600482016000611d199190611d8d565b600582016000905550509055611d3d565b8080611d35906125fe565b915050611ae9565b5050565b6040518060c00160405280600073ffffffffffffffffffffffffffffffffffffffff16815260200160608152602001606081526020016060815260200160608152602001600081525090565b508054611d999061256f565b6000825580601f10611dab5750611dca565b601f016020900490600052602060002090810190611dc99190611dcd565b5b50565b5b80821115611de6576000816000905550600101611dce565b5090565b600081519050919050565b600082825260208201905092915050565b6000819050602082019050919050565b600073ffffffffffffffffffffffffffffffffffffffff82169050919050565b6000611e4182611e16565b9050919050565b611e5181611e36565b82525050565b600081519050919050565b600082825260208201905092915050565b60005b83811015611e91578082015181840152602081019050611e76565b60008484015250505050565b6000601f19601f8301169050919050565b6000611eb982611e57565b611ec38185611e62565b9350611ed3818560208601611e73565b611edc81611e9d565b840191505092915050565b6000819050919050565b611efa81611ee7565b82525050565b600060c083016000830151611f186000860182611e48565b5060208301518482036020860152611f308282611eae565b91505060408301518482036040860152611f4a8282611eae565b91505060608301518482036060860152611f648282611eae565b91505060808301518482036080860152611f7e8282611eae565b91505060a0830151611f9360a0860182611ef1565b508091505092915050565b6000611faa8383611f00565b905092915050565b6000602082019050919050565b6000611fca82611dea565b611fd48185611df5565b935083602082028501611fe685611e06565b8060005b8581101561202257848403895281516120038582611f9e565b945061200e83611fb2565b925060208a01995050600181019050611fea565b50829750879550505050505092915050565b6000602082019050818103600083015261204e8184611fbf565b905092915050565b600061206182611e16565b9050919050565b61207181612056565b82525050565b600060208201905061208c6000830184612068565b92915050565b6000604051905090565b600080fd5b600080fd5b6120af81611e36565b81146120ba57600080fd5b50565b6000813590506120cc816120a6565b92915050565b6000602082840312156120e8576120e761209c565b5b60006120f6848285016120bd565b91505092915050565b61210881611ee7565b82525050565b600060208201905061212360008301846120ff565b92915050565b60008115159050919050565b61213e81612129565b82525050565b60006020820190506121596000830184612135565b92915050565b61216881611ee7565b811461217357600080fd5b50565b6000813590506121858161215f565b92915050565b6000602082840312156121a1576121a061209c565b5b60006121af84828501612176565b91505092915050565b6121c181611e36565b82525050565b600082825260208201905092915050565b60006121e382611e57565b6121ed81856121c7565b93506121fd818560208601611e73565b61220681611e9d565b840191505092915050565b600060c08201905061222660008301896121b8565b818103602083015261223881886121d8565b9050818103604083015261224c81876121d8565b9050818103606083015261226081866121d8565b9050818103608083015261227481856121d8565b905061228360a08301846120ff565b979650505050505050565b600080fd5b600080fd5b7f4e487b7100000000000000000000000000000000000000000000000000000000600052604160045260246000fd5b6122d082611e9d565b810181811067ffffffffffffffff821117156122ef576122ee612298565b5b80604052505050565b6000612302612092565b905061230e82826122c7565b919050565b600067ffffffffffffffff82111561232e5761232d612298565b5b61233782611e9d565b9050602081019050919050565b82818337600083830152505050565b600061236661236184612313565b6122f8565b90508281526020810184848401111561238257612381612293565b5b61238d848285612344565b509392505050565b600082601f8301126123aa576123a961228e565b5b81356123ba848260208601612353565b91505092915050565b600080600080600060a086880312156123df576123de61209c565b5b600086013567ffffffffffffffff8111156123fd576123fc6120a1565b5b61240988828901612395565b955050602086013567ffffffffffffffff81111561242a576124296120a1565b5b61243688828901612395565b945050604086013567ffffffffffffffff811115612457576124566120a1565b5b61246388828901612395565b935050606086013567ffffffffffffffff811115612484576124836120a1565b5b61249088828901612395565b92505060806124a188828901612176565b9150509295509295909350565b7f4f6e6c7920676f7665726e6d656e742063616e2063616c6c207468697320667560008201527f6e6374696f6e0000000000000000000000000000000000000000000000000000602082015250565b600061250a6026836121c7565b9150612515826124ae565b604082019050919050565b60006020820190508181036000830152612539816124fd565b9050919050565b7f4e487b7100000000000000000000000000000000000000000000000000000000600052602260045260246000fd5b6000600282049050600182168061258757607f821691505b60208210810361259a57612599612540565b5b50919050565b7f4e487b7100000000000000000000000000000000000000000000000000000000600052603260045260246000fd5b7f4e487b7100000000000000000000000000000000000000000000000000000000600052601160045260246000fd5b600061260982611ee7565b91507fffffffffffffffffffffffffffffffffffffffffffffffffffffffffffffffff820361263b5761263a6125cf565b5b600182019050919050565b7f52656675676565206e6f7420666f756e64206f7220616c72656164792076657260008201527f6966696564000000000000000000000000000000000000000000000000000000602082015250565b60006126a26025836121c7565b91506126ad82612646565b604082019050919050565b600060208201905081810360008301526126d181612695565b9050919050565b7f496e73756666696369656e7420636f6e74726163742062616c616e6365000000600082015250565b600061270e601d836121c7565b9150612719826126d8565b602082019050919050565b6000602082019050818103600083015261273d81612701565b9050919050565b60008190508160005260206000209050919050565b60006020601f8301049050919050565b600082821b905092915050565b6000600883026127a67fffffffffffffffffffffffffffffffffffffffffffffffffffffffffffffffff82612769565b6127b08683612769565b95508019841693508086168417925050509392505050565b6000819050919050565b60006127ed6127e86127e384611ee7565b6127c8565b611ee7565b9050919050565b6000819050919050565b612807836127d2565b61281b612813826127f4565b848454612776565b825550505050565b600090565b612830612823565b61283b8184846127fe565b505050565b5b8181101561285f57612854600082612828565b600181019050612841565b5050565b601f8211156128a45761287581612744565b61287e84612759565b8101602085101561288d578190505b6128a161289985612759565b830182612840565b50505b505050565b600082821c905092915050565b60006128c7600019846008026128a9565b1980831691505092915050565b60006128e083836128b6565b9150826002028217905092915050565b6128f982611e57565b67ffffffffffffffff81111561291257612911612298565b5b61291c825461256f565b612927828285612863565b600060209050601f83116001811461295a5760008415612948578287015190505b61295285826128d4565b8655506129ba565b601f19841661296886612744565b60005b828110156129905784890151825560018201915060208501945060208101905061296b565b868310156129ad57848901516129a9601f8916826128b6565b8355505b6001600288020188555050505b505050505050565b60006129cd82611ee7565b91506129d883611ee7565b92508282019050808211156129f0576129ef6125cf565b5b92915050565b6000612a0182611ee7565b9150612a0c83611ee7565b9250828203905081811115612a2457612a236125cf565b5b92915050565b600081549050612a398161256f565b9050919050565b818103612a4e575050612b26565b612a5782612a2a565b67ffffffffffffffff811115612a7057612a6f612298565b5b612a7a825461256f565b612a85828285612863565b6000601f831160018114612ab45760008415612aa2578287015490505b612aac85826128d4565b865550612b1f565b601f198416612ac287612744565b9650612acd86612744565b60005b82811015612af557848901548255600182019150600185019450602081019050612ad0565b86831015612b125784890154612b0e601f8916826128b6565b8355505b6001600288020188555050505b5050505050505b565b7f4e487b7100000000000000000000000000000000000000000000000000000000600052603160045260246000fdfea264697066735822122069e7808bbd669f00edf0ffb0d72baea4a3843badc66329739bb7f83b9bc993c464736f6c63430008130033",
  "linkReferences": {},
  "deployedLinkReferences": {}
}